{
  "_format": "hh-sol-artifact-1",
  "contractName": "PropertyNft",
  "sourceName": "contracts/PropertyNft.sol",
  "abi": [
    {
      "inputs": [],
      "stateMutability": "nonpayable",
      "type": "constructor"
    },
    {
      "anonymous": false,
      "inputs": [
        {
          "indexed": true,
          "internalType": "address",
          "name": "owner",
          "type": "address"
        },
        {
          "indexed": true,
          "internalType": "address",
          "name": "approved",
          "type": "address"
        },
        {
          "indexed": true,
          "internalType": "uint256",
          "name": "tokenId",
          "type": "uint256"
        }
      ],
      "name": "Approval",
      "type": "event"
    },
    {
      "anonymous": false,
      "inputs": [
        {
          "indexed": true,
          "internalType": "address",
          "name": "owner",
          "type": "address"
        },
        {
          "indexed": true,
          "internalType": "address",
          "name": "operator",
          "type": "address"
        },
        {
          "indexed": false,
          "internalType": "bool",
          "name": "approved",
          "type": "bool"
        }
      ],
      "name": "ApprovalForAll",
      "type": "event"
    },
    {
      "anonymous": false,
      "inputs": [
        {
          "indexed": true,
          "internalType": "address",
          "name": "previousOwner",
          "type": "address"
        },
        {
          "indexed": true,
          "internalType": "address",
          "name": "newOwner",
          "type": "address"
        }
      ],
      "name": "OwnershipTransferred",
      "type": "event"
    },
    {
      "anonymous": false,
      "inputs": [
        {
          "indexed": false,
          "internalType": "address",
          "name": "account",
          "type": "address"
        }
      ],
      "name": "Paused",
      "type": "event"
    },
    {
      "anonymous": false,
      "inputs": [
        {
          "indexed": true,
          "internalType": "address",
          "name": "from",
          "type": "address"
        },
        {
          "indexed": true,
          "internalType": "address",
          "name": "to",
          "type": "address"
        },
        {
          "indexed": true,
          "internalType": "uint256",
          "name": "tokenId",
          "type": "uint256"
        }
      ],
      "name": "Transfer",
      "type": "event"
    },
    {
      "anonymous": false,
      "inputs": [
        {
          "indexed": false,
          "internalType": "address",
          "name": "account",
          "type": "address"
        }
      ],
      "name": "Unpaused",
      "type": "event"
    },
    {
      "inputs": [],
      "name": "MINT_PRICE",
      "outputs": [
        {
          "internalType": "uint256",
          "name": "",
          "type": "uint256"
        }
      ],
      "stateMutability": "view",
      "type": "function"
    },
    {
      "inputs": [
        {
          "internalType": "address",
          "name": "to",
          "type": "address"
        },
        {
          "internalType": "uint256",
          "name": "tokenId",
          "type": "uint256"
        }
      ],
      "name": "approve",
      "outputs": [],
      "stateMutability": "nonpayable",
      "type": "function"
    },
    {
      "inputs": [
        {
          "internalType": "address",
          "name": "owner",
          "type": "address"
        }
      ],
      "name": "balanceOf",
      "outputs": [
        {
          "internalType": "uint256",
          "name": "",
          "type": "uint256"
        }
      ],
      "stateMutability": "view",
      "type": "function"
    },
    {
      "inputs": [
        {
          "internalType": "uint256",
          "name": "tokenId",
          "type": "uint256"
        }
      ],
      "name": "getApproved",
      "outputs": [
        {
          "internalType": "address",
          "name": "",
          "type": "address"
        }
      ],
      "stateMutability": "view",
      "type": "function"
    },
    {
      "inputs": [
        {
          "internalType": "address",
          "name": "owner",
          "type": "address"
        },
        {
          "internalType": "address",
          "name": "operator",
          "type": "address"
        }
      ],
      "name": "isApprovedForAll",
      "outputs": [
        {
          "internalType": "bool",
          "name": "",
          "type": "bool"
        }
      ],
      "stateMutability": "view",
      "type": "function"
    },
    {
      "inputs": [],
      "name": "name",
      "outputs": [
        {
          "internalType": "string",
          "name": "",
          "type": "string"
        }
      ],
      "stateMutability": "view",
      "type": "function"
    },
    {
      "inputs": [],
      "name": "owner",
      "outputs": [
        {
          "internalType": "address",
          "name": "",
          "type": "address"
        }
      ],
      "stateMutability": "view",
      "type": "function"
    },
    {
      "inputs": [
        {
          "internalType": "uint256",
          "name": "tokenId",
          "type": "uint256"
        }
      ],
      "name": "ownerOf",
      "outputs": [
        {
          "internalType": "address",
          "name": "",
          "type": "address"
        }
      ],
      "stateMutability": "view",
      "type": "function"
    },
    {
      "inputs": [],
      "name": "pause",
      "outputs": [],
      "stateMutability": "nonpayable",
      "type": "function"
    },
    {
      "inputs": [],
      "name": "paused",
      "outputs": [
        {
          "internalType": "bool",
          "name": "",
          "type": "bool"
        }
      ],
      "stateMutability": "view",
      "type": "function"
    },
    {
      "inputs": [],
      "name": "renounceOwnership",
      "outputs": [],
      "stateMutability": "nonpayable",
      "type": "function"
    },
    {
      "inputs": [
        {
          "internalType": "address",
          "name": "to",
          "type": "address"
        }
      ],
      "name": "safeMint",
      "outputs": [],
      "stateMutability": "payable",
      "type": "function"
    },
    {
      "inputs": [
        {
          "internalType": "address",
          "name": "from",
          "type": "address"
        },
        {
          "internalType": "address",
          "name": "to",
          "type": "address"
        },
        {
          "internalType": "uint256",
          "name": "tokenId",
          "type": "uint256"
        }
      ],
      "name": "safeTransferFrom",
      "outputs": [],
      "stateMutability": "nonpayable",
      "type": "function"
    },
    {
      "inputs": [
        {
          "internalType": "address",
          "name": "from",
          "type": "address"
        },
        {
          "internalType": "address",
          "name": "to",
          "type": "address"
        },
        {
          "internalType": "uint256",
          "name": "tokenId",
          "type": "uint256"
        },
        {
          "internalType": "bytes",
          "name": "data",
          "type": "bytes"
        }
      ],
      "name": "safeTransferFrom",
      "outputs": [],
      "stateMutability": "nonpayable",
      "type": "function"
    },
    {
      "inputs": [
        {
          "internalType": "address",
          "name": "operator",
          "type": "address"
        },
        {
          "internalType": "bool",
          "name": "approved",
          "type": "bool"
        }
      ],
      "name": "setApprovalForAll",
      "outputs": [],
      "stateMutability": "nonpayable",
      "type": "function"
    },
    {
      "inputs": [
        {
          "internalType": "bytes4",
          "name": "interfaceId",
          "type": "bytes4"
        }
      ],
      "name": "supportsInterface",
      "outputs": [
        {
          "internalType": "bool",
          "name": "",
          "type": "bool"
        }
      ],
      "stateMutability": "view",
      "type": "function"
    },
    {
      "inputs": [],
      "name": "symbol",
      "outputs": [
        {
          "internalType": "string",
          "name": "",
          "type": "string"
        }
      ],
      "stateMutability": "view",
      "type": "function"
    },
    {
      "inputs": [
        {
          "internalType": "uint256",
          "name": "index",
          "type": "uint256"
        }
      ],
      "name": "tokenByIndex",
      "outputs": [
        {
          "internalType": "uint256",
          "name": "",
          "type": "uint256"
        }
      ],
      "stateMutability": "view",
      "type": "function"
    },
    {
      "inputs": [
        {
          "internalType": "address",
          "name": "owner",
          "type": "address"
        },
        {
          "internalType": "uint256",
          "name": "index",
          "type": "uint256"
        }
      ],
      "name": "tokenOfOwnerByIndex",
      "outputs": [
        {
          "internalType": "uint256",
          "name": "",
          "type": "uint256"
        }
      ],
      "stateMutability": "view",
      "type": "function"
    },
    {
      "inputs": [
        {
          "internalType": "uint256",
          "name": "tokenId",
          "type": "uint256"
        }
      ],
      "name": "tokenURI",
      "outputs": [
        {
          "internalType": "string",
          "name": "",
          "type": "string"
        }
      ],
      "stateMutability": "view",
      "type": "function"
    },
    {
      "inputs": [],
      "name": "totalSupply",
      "outputs": [
        {
          "internalType": "uint256",
          "name": "",
          "type": "uint256"
        }
      ],
      "stateMutability": "view",
      "type": "function"
    },
    {
      "inputs": [
        {
          "internalType": "address",
          "name": "from",
          "type": "address"
        },
        {
          "internalType": "address",
          "name": "to",
          "type": "address"
        },
        {
          "internalType": "uint256",
          "name": "tokenId",
          "type": "uint256"
        }
      ],
      "name": "transferFrom",
      "outputs": [],
      "stateMutability": "nonpayable",
      "type": "function"
    },
    {
      "inputs": [
        {
          "internalType": "address",
          "name": "newOwner",
          "type": "address"
        }
      ],
      "name": "transferOwnership",
      "outputs": [],
      "stateMutability": "nonpayable",
      "type": "function"
    },
    {
      "inputs": [],
      "name": "unpause",
      "outputs": [],
      "stateMutability": "nonpayable",
      "type": "function"
    },
    {
      "inputs": [],
      "name": "withdraw",
      "outputs": [],
      "stateMutability": "nonpayable",
      "type": "function"
    }
  ],
  "bytecode": "0x608060405264174876e800600c553480156200001a57600080fd5b506040518060400160405280600b81526020017f50726f70657274794e66740000000000000000000000000000000000000000008152506040518060400160405280600381526020017f524e54000000000000000000000000000000000000000000000000000000000081525081600090805190602001906200009f929190620001f7565b508060019080519060200190620000b8929190620001f7565b5050506000600a60006101000a81548160ff021916908315150217905550620000f6620000ea6200011360201b60201c565b6200011b60201b60201c565b6200010d600b620001e160201b62000eb61760201c565b6200030c565b600033905090565b6000600a60019054906101000a900473ffffffffffffffffffffffffffffffffffffffff16905081600a60016101000a81548173ffffffffffffffffffffffffffffffffffffffff021916908373ffffffffffffffffffffffffffffffffffffffff1602179055508173ffffffffffffffffffffffffffffffffffffffff168173ffffffffffffffffffffffffffffffffffffffff167f8be0079c531659141344cd1fd0a4f28419497f9722a3daafe3b4186f6b6457e060405160405180910390a35050565b6001816000016000828254019250508190555050565b8280546200020590620002d6565b90600052602060002090601f01602090048101928262000229576000855562000275565b82601f106200024457805160ff191683800117855562000275565b8280016001018555821562000275579182015b828111156200027457825182559160200191906001019062000257565b5b50905062000284919062000288565b5090565b5b80821115620002a357600081600090555060010162000289565b5090565b7f4e487b7100000000000000000000000000000000000000000000000000000000600052602260045260246000fd5b60006002820490506001821680620002ef57607f821691505b60208210811415620003065762000305620002a7565b5b50919050565b613803806200031c6000396000f3fe6080604052600436106101665760003560e01c80635c975abb116100d157806395d89b411161008a578063c002d23d11610064578063c002d23d146104f5578063c87b56dd14610520578063e985e9c51461055d578063f2fde38b1461059a57610166565b806395d89b4114610478578063a22cb465146104a3578063b88d4fde146104cc57610166565b80635c975abb1461037a5780636352211e146103a557806370a08231146103e2578063715018a61461041f5780638456cb59146104365780638da5cb5b1461044d57610166565b80632f745c59116101235780632f745c591461028d5780633ccfd60b146102ca5780633f4ba83a146102e157806340d097c3146102f857806342842e0e146103145780634f6ccce71461033d57610166565b806301ffc9a71461016b57806306fdde03146101a8578063081812fc146101d3578063095ea7b31461021057806318160ddd1461023957806323b872dd14610264575b600080fd5b34801561017757600080fd5b50610192600480360381019061018d91906125d0565b6105c3565b60405161019f9190612618565b60405180910390f35b3480156101b457600080fd5b506101bd6105d5565b6040516101ca91906126cc565b60405180910390f35b3480156101df57600080fd5b506101fa60048036038101906101f59190612724565b610667565b6040516102079190612792565b60405180910390f35b34801561021c57600080fd5b50610237600480360381019061023291906127d9565b6106ad565b005b34801561024557600080fd5b5061024e6107c5565b60405161025b9190612828565b60405180910390f35b34801561027057600080fd5b5061028b60048036038101906102869190612843565b6107d2565b005b34801561029957600080fd5b506102b460048036038101906102af91906127d9565b610832565b6040516102c19190612828565b60405180910390f35b3480156102d657600080fd5b506102df6108d7565b005b3480156102ed57600080fd5b506102f6610972565b005b610312600480360381019061030d9190612896565b610984565b005b34801561032057600080fd5b5061033b60048036038101906103369190612843565b6109ef565b005b34801561034957600080fd5b50610364600480360381019061035f9190612724565b610a0f565b6040516103719190612828565b60405180910390f35b34801561038657600080fd5b5061038f610a80565b60405161039c9190612618565b60405180910390f35b3480156103b157600080fd5b506103cc60048036038101906103c79190612724565b610a97565b6040516103d99190612792565b60405180910390f35b3480156103ee57600080fd5b5061040960048036038101906104049190612896565b610b1e565b6040516104169190612828565b60405180910390f35b34801561042b57600080fd5b50610434610bd6565b005b34801561044257600080fd5b5061044b610bea565b005b34801561045957600080fd5b50610462610bfc565b60405161046f9190612792565b60405180910390f35b34801561048457600080fd5b5061048d610c26565b60405161049a91906126cc565b60405180910390f35b3480156104af57600080fd5b506104ca60048036038101906104c591906128ef565b610cb8565b005b3480156104d857600080fd5b506104f360048036038101906104ee9190612a64565b610cce565b005b34801561050157600080fd5b5061050a610d30565b6040516105179190612828565b60405180910390f35b34801561052c57600080fd5b5061054760048036038101906105429190612724565b610d36565b60405161055491906126cc565b60405180910390f35b34801561056957600080fd5b50610584600480360381019061057f9190612ae7565b610d9e565b6040516105919190612618565b60405180910390f35b3480156105a657600080fd5b506105c160048036038101906105bc9190612896565b610e32565b005b60006105ce82610ecc565b9050919050565b6060600080546105e490612b56565b80601f016020809104026020016040519081016040528092919081815260200182805461061090612b56565b801561065d5780601f106106325761010080835404028352916020019161065d565b820191906000526020600020905b81548152906001019060200180831161064057829003601f168201915b5050505050905090565b600061067282610f46565b6004600083815260200190815260200160002060009054906101000a900473ffffffffffffffffffffffffffffffffffffffff169050919050565b60006106b882610a97565b90508073ffffffffffffffffffffffffffffffffffffffff168373ffffffffffffffffffffffffffffffffffffffff161415610729576040517f08c379a000000000000000000000000000000000000000000000000000000000815260040161072090612bfa565b60405180910390fd5b8073ffffffffffffffffffffffffffffffffffffffff16610748610f91565b73ffffffffffffffffffffffffffffffffffffffff161480610777575061077681610771610f91565b610d9e565b5b6107b6576040517f08c379a00000000000000000000000000000000000000000000000000000000081526004016107ad90612c8c565b60405180910390fd5b6107c08383610f99565b505050565b6000600880549050905090565b6107e36107dd610f91565b82611052565b610822576040517f08c379a000000000000000000000000000000000000000000000000000000000815260040161081990612d1e565b60405180910390fd5b61082d8383836110e7565b505050565b600061083d83610b1e565b821061087e576040517f08c379a000000000000000000000000000000000000000000000000000000000815260040161087590612db0565b60405180910390fd5b600660008473ffffffffffffffffffffffffffffffffffffffff1673ffffffffffffffffffffffffffffffffffffffff168152602001908152602001600020600083815260200190815260200160002054905092915050565b6108df6113e1565b60004711610922576040517f08c379a000000000000000000000000000000000000000000000000000000000815260040161091990612e1c565b60405180910390fd5b61092a610bfc565b73ffffffffffffffffffffffffffffffffffffffff166108fc479081150290604051600060405180830381858888f1935050505015801561096f573d6000803e3d6000fd5b50565b61097a6113e1565b61098261145f565b565b600c543410156109c9576040517f08c379a00000000000000000000000000000000000000000000000000000000081526004016109c090612e88565b60405180910390fd5b60006109d5600b6114c2565b90506109e1600b610eb6565b6109eb82826114d0565b5050565b610a0a83838360405180602001604052806000815250610cce565b505050565b6000610a196107c5565b8210610a5a576040517f08c379a0000000000000000000000000000000000000000000000000000000008152600401610a5190612f1a565b60405180910390fd5b60088281548110610a6e57610a6d612f3a565b5b90600052602060002001549050919050565b6000600a60009054906101000a900460ff16905090565b600080610aa3836114ee565b9050600073ffffffffffffffffffffffffffffffffffffffff168173ffffffffffffffffffffffffffffffffffffffff161415610b15576040517f08c379a0000000000000000000000000000000000000000000000000000000008152600401610b0c90612fb5565b60405180910390fd5b80915050919050565b60008073ffffffffffffffffffffffffffffffffffffffff168273ffffffffffffffffffffffffffffffffffffffff161415610b8f576040517f08c379a0000000000000000000000000000000000000000000000000000000008152600401610b8690613047565b60405180910390fd5b600360008373ffffffffffffffffffffffffffffffffffffffff1673ffffffffffffffffffffffffffffffffffffffff168152602001908152602001600020549050919050565b610bde6113e1565b610be8600061152b565b565b610bf26113e1565b610bfa6115f1565b565b6000600a60019054906101000a900473ffffffffffffffffffffffffffffffffffffffff16905090565b606060018054610c3590612b56565b80601f0160208091040260200160405190810160405280929190818152602001828054610c6190612b56565b8015610cae5780601f10610c8357610100808354040283529160200191610cae565b820191906000526020600020905b815481529060010190602001808311610c9157829003601f168201915b5050505050905090565b610cca610cc3610f91565b8383611654565b5050565b610cdf610cd9610f91565b83611052565b610d1e576040517f08c379a0000000000000000000000000000000000000000000000000000000008152600401610d1590612d1e565b60405180910390fd5b610d2a848484846117c1565b50505050565b600c5481565b6060610d4182610f46565b6000610d4b61181d565b90506000815111610d6b5760405180602001604052806000815250610d96565b80610d758461185a565b604051602001610d869291906130a3565b6040516020818303038152906040525b915050919050565b6000600560008473ffffffffffffffffffffffffffffffffffffffff1673ffffffffffffffffffffffffffffffffffffffff16815260200190815260200160002060008373ffffffffffffffffffffffffffffffffffffffff1673ffffffffffffffffffffffffffffffffffffffff16815260200190815260200160002060009054906101000a900460ff16905092915050565b610e3a6113e1565b600073ffffffffffffffffffffffffffffffffffffffff168173ffffffffffffffffffffffffffffffffffffffff161415610eaa576040517f08c379a0000000000000000000000000000000000000000000000000000000008152600401610ea190613139565b60405180910390fd5b610eb38161152b565b50565b6001816000016000828254019250508190555050565b60007f780e9d63000000000000000000000000000000000000000000000000000000007bffffffffffffffffffffffffffffffffffffffffffffffffffffffff1916827bffffffffffffffffffffffffffffffffffffffffffffffffffffffff19161480610f3f5750610f3e82611932565b5b9050919050565b610f4f81611a14565b610f8e576040517f08c379a0000000000000000000000000000000000000000000000000000000008152600401610f8590612fb5565b60405180910390fd5b50565b600033905090565b816004600083815260200190815260200160002060006101000a81548173ffffffffffffffffffffffffffffffffffffffff021916908373ffffffffffffffffffffffffffffffffffffffff160217905550808273ffffffffffffffffffffffffffffffffffffffff1661100c83610a97565b73ffffffffffffffffffffffffffffffffffffffff167f8c5be1e5ebec7d5bd14f71427d1e84f3dd0314c0f7b2291e5b200ac8c7c3b92560405160405180910390a45050565b60008061105e83610a97565b90508073ffffffffffffffffffffffffffffffffffffffff168473ffffffffffffffffffffffffffffffffffffffff1614806110a0575061109f8185610d9e565b5b806110de57508373ffffffffffffffffffffffffffffffffffffffff166110c684610667565b73ffffffffffffffffffffffffffffffffffffffff16145b91505092915050565b8273ffffffffffffffffffffffffffffffffffffffff1661110782610a97565b73ffffffffffffffffffffffffffffffffffffffff161461115d576040517f08c379a0000000000000000000000000000000000000000000000000000000008152600401611154906131cb565b60405180910390fd5b600073ffffffffffffffffffffffffffffffffffffffff168273ffffffffffffffffffffffffffffffffffffffff1614156111cd576040517f08c379a00000000000000000000000000000000000000000000000000000000081526004016111c49061325d565b60405180910390fd5b6111da8383836001611a55565b8273ffffffffffffffffffffffffffffffffffffffff166111fa82610a97565b73ffffffffffffffffffffffffffffffffffffffff1614611250576040517f08c379a0000000000000000000000000000000000000000000000000000000008152600401611247906131cb565b60405180910390fd5b6004600082815260200190815260200160002060006101000a81549073ffffffffffffffffffffffffffffffffffffffff02191690556001600360008573ffffffffffffffffffffffffffffffffffffffff1673ffffffffffffffffffffffffffffffffffffffff168152602001908152602001600020600082825403925050819055506001600360008473ffffffffffffffffffffffffffffffffffffffff1673ffffffffffffffffffffffffffffffffffffffff16815260200190815260200160002060008282540192505081905550816002600083815260200190815260200160002060006101000a81548173ffffffffffffffffffffffffffffffffffffffff021916908373ffffffffffffffffffffffffffffffffffffffff160217905550808273ffffffffffffffffffffffffffffffffffffffff168473ffffffffffffffffffffffffffffffffffffffff167fddf252ad1be2c89b69c2b068fc378daa952ba7f163c4a11628f55a4df523b3ef60405160405180910390a46113dc8383836001611a6f565b505050565b6113e9610f91565b73ffffffffffffffffffffffffffffffffffffffff16611407610bfc565b73ffffffffffffffffffffffffffffffffffffffff161461145d576040517f08c379a0000000000000000000000000000000000000000000000000000000008152600401611454906132c9565b60405180910390fd5b565b611467611a75565b6000600a60006101000a81548160ff0219169083151502179055507f5db9ee0a495bf2e6ff9c91a7834c1ba4fdd244a5e8aa4e537bd38aeae4b073aa6114ab610f91565b6040516114b89190612792565b60405180910390a1565b600081600001549050919050565b6114ea828260405180602001604052806000815250611abe565b5050565b60006002600083815260200190815260200160002060009054906101000a900473ffffffffffffffffffffffffffffffffffffffff169050919050565b6000600a60019054906101000a900473ffffffffffffffffffffffffffffffffffffffff16905081600a60016101000a81548173ffffffffffffffffffffffffffffffffffffffff021916908373ffffffffffffffffffffffffffffffffffffffff1602179055508173ffffffffffffffffffffffffffffffffffffffff168173ffffffffffffffffffffffffffffffffffffffff167f8be0079c531659141344cd1fd0a4f28419497f9722a3daafe3b4186f6b6457e060405160405180910390a35050565b6115f9611b19565b6001600a60006101000a81548160ff0219169083151502179055507f62e78cea01bee320cd4e420270b5ea74000d11b0c9f74754ebdbfc544b05a25861163d610f91565b60405161164a9190612792565b60405180910390a1565b8173ffffffffffffffffffffffffffffffffffffffff168373ffffffffffffffffffffffffffffffffffffffff1614156116c3576040517f08c379a00000000000000000000000000000000000000000000000000000000081526004016116ba90613335565b60405180910390fd5b80600560008573ffffffffffffffffffffffffffffffffffffffff1673ffffffffffffffffffffffffffffffffffffffff16815260200190815260200160002060008473ffffffffffffffffffffffffffffffffffffffff1673ffffffffffffffffffffffffffffffffffffffff16815260200190815260200160002060006101000a81548160ff0219169083151502179055508173ffffffffffffffffffffffffffffffffffffffff168373ffffffffffffffffffffffffffffffffffffffff167f17307eab39ab6107e8899845ad3d59bd9653f200f220920489ca2b5937696c31836040516117b49190612618565b60405180910390a3505050565b6117cc8484846110e7565b6117d884848484611b63565b611817576040517f08c379a000000000000000000000000000000000000000000000000000000000815260040161180e906133c7565b60405180910390fd5b50505050565b60606040518060400160405280601a81526020017f697066733a2f2f50726f70657274794e6674426173655552492f000000000000815250905090565b60606000600161186984611cfa565b01905060008167ffffffffffffffff81111561188857611887612939565b5b6040519080825280601f01601f1916602001820160405280156118ba5781602001600182028036833780820191505090505b509050600082602001820190505b600115611927578080600190039150507f3031323334353637383961626364656600000000000000000000000000000000600a86061a8153600a8581611911576119106133e7565b5b049450600085141561192257611927565b6118c8565b819350505050919050565b60007f80ac58cd000000000000000000000000000000000000000000000000000000007bffffffffffffffffffffffffffffffffffffffffffffffffffffffff1916827bffffffffffffffffffffffffffffffffffffffffffffffffffffffff191614806119fd57507f5b5e139f000000000000000000000000000000000000000000000000000000007bffffffffffffffffffffffffffffffffffffffffffffffffffffffff1916827bffffffffffffffffffffffffffffffffffffffffffffffffffffffff1916145b80611a0d5750611a0c82611e4d565b5b9050919050565b60008073ffffffffffffffffffffffffffffffffffffffff16611a36836114ee565b73ffffffffffffffffffffffffffffffffffffffff1614159050919050565b611a5d611b19565b611a6984848484611eb7565b50505050565b50505050565b611a7d610a80565b611abc576040517f08c379a0000000000000000000000000000000000000000000000000000000008152600401611ab390613462565b60405180910390fd5b565b611ac88383612017565b611ad56000848484611b63565b611b14576040517f08c379a0000000000000000000000000000000000000000000000000000000008152600401611b0b906133c7565b60405180910390fd5b505050565b611b21610a80565b15611b61576040517f08c379a0000000000000000000000000000000000000000000000000000000008152600401611b58906134ce565b60405180910390fd5b565b6000611b848473ffffffffffffffffffffffffffffffffffffffff16612235565b15611ced578373ffffffffffffffffffffffffffffffffffffffff1663150b7a02611bad610f91565b8786866040518563ffffffff1660e01b8152600401611bcf9493929190613543565b602060405180830381600087803b158015611be957600080fd5b505af1925050508015611c1a57506040513d601f19601f82011682018060405250810190611c1791906135a4565b60015b611c9d573d8060008114611c4a576040519150601f19603f3d011682016040523d82523d6000602084013e611c4f565b606091505b50600081511415611c95576040517f08c379a0000000000000000000000000000000000000000000000000000000008152600401611c8c906133c7565b60405180910390fd5b805181602001fd5b63150b7a0260e01b7bffffffffffffffffffffffffffffffffffffffffffffffffffffffff1916817bffffffffffffffffffffffffffffffffffffffffffffffffffffffff191614915050611cf2565b600190505b949350505050565b600080600090507a184f03e93ff9f4daa797ed6e38ed64bf6a1f0100000000000000008310611d58577a184f03e93ff9f4daa797ed6e38ed64bf6a1f0100000000000000008381611d4e57611d4d6133e7565b5b0492506040810190505b6d04ee2d6d415b85acef81000000008310611d95576d04ee2d6d415b85acef81000000008381611d8b57611d8a6133e7565b5b0492506020810190505b662386f26fc100008310611dc457662386f26fc100008381611dba57611db96133e7565b5b0492506010810190505b6305f5e1008310611ded576305f5e1008381611de357611de26133e7565b5b0492506008810190505b6127108310611e12576127108381611e0857611e076133e7565b5b0492506004810190505b60648310611e355760648381611e2b57611e2a6133e7565b5b0492506002810190505b600a8310611e44576001810190505b80915050919050565b60007f01ffc9a7000000000000000000000000000000000000000000000000000000007bffffffffffffffffffffffffffffffffffffffffffffffffffffffff1916827bffffffffffffffffffffffffffffffffffffffffffffffffffffffff1916149050919050565b611ec384848484612258565b6001811115611f07576040517f08c379a0000000000000000000000000000000000000000000000000000000008152600401611efe90613643565b60405180910390fd5b6000829050600073ffffffffffffffffffffffffffffffffffffffff168573ffffffffffffffffffffffffffffffffffffffff161415611f4f57611f4a8161225e565b611f8e565b8373ffffffffffffffffffffffffffffffffffffffff168573ffffffffffffffffffffffffffffffffffffffff1614611f8d57611f8c85826122a7565b5b5b600073ffffffffffffffffffffffffffffffffffffffff168473ffffffffffffffffffffffffffffffffffffffff161415611fd157611fcc81612414565b612010565b8473ffffffffffffffffffffffffffffffffffffffff168473ffffffffffffffffffffffffffffffffffffffff161461200f5761200e84826124e5565b5b5b5050505050565b600073ffffffffffffffffffffffffffffffffffffffff168273ffffffffffffffffffffffffffffffffffffffff161415612087576040517f08c379a000000000000000000000000000000000000000000000000000000000815260040161207e906136af565b60405180910390fd5b61209081611a14565b156120d0576040517f08c379a00000000000000000000000000000000000000000000000000000000081526004016120c79061371b565b60405180910390fd5b6120de600083836001611a55565b6120e781611a14565b15612127576040517f08c379a000000000000000000000000000000000000000000000000000000000815260040161211e9061371b565b60405180910390fd5b6001600360008473ffffffffffffffffffffffffffffffffffffffff1673ffffffffffffffffffffffffffffffffffffffff16815260200190815260200160002060008282540192505081905550816002600083815260200190815260200160002060006101000a81548173ffffffffffffffffffffffffffffffffffffffff021916908373ffffffffffffffffffffffffffffffffffffffff160217905550808273ffffffffffffffffffffffffffffffffffffffff16600073ffffffffffffffffffffffffffffffffffffffff167fddf252ad1be2c89b69c2b068fc378daa952ba7f163c4a11628f55a4df523b3ef60405160405180910390a4612231600083836001611a6f565b5050565b6000808273ffffffffffffffffffffffffffffffffffffffff163b119050919050565b50505050565b6008805490506009600083815260200190815260200160002081905550600881908060018154018082558091505060019003906000526020600020016000909190919091505550565b600060016122b484610b1e565b6122be919061376a565b90506000600760008481526020019081526020016000205490508181146123a3576000600660008673ffffffffffffffffffffffffffffffffffffffff1673ffffffffffffffffffffffffffffffffffffffff168152602001908152602001600020600084815260200190815260200160002054905080600660008773ffffffffffffffffffffffffffffffffffffffff1673ffffffffffffffffffffffffffffffffffffffff168152602001908152602001600020600084815260200190815260200160002081905550816007600083815260200190815260200160002081905550505b6007600084815260200190815260200160002060009055600660008573ffffffffffffffffffffffffffffffffffffffff1673ffffffffffffffffffffffffffffffffffffffff16815260200190815260200160002060008381526020019081526020016000206000905550505050565b60006001600880549050612428919061376a565b905060006009600084815260200190815260200160002054905060006008838154811061245857612457612f3a565b5b90600052602060002001549050806008838154811061247a57612479612f3a565b5b9060005260206000200181905550816009600083815260200190815260200160002081905550600960008581526020019081526020016000206000905560088054806124c9576124c861379e565b5b6001900381819060005260206000200160009055905550505050565b60006124f083610b1e565b905081600660008573ffffffffffffffffffffffffffffffffffffffff1673ffffffffffffffffffffffffffffffffffffffff168152602001908152602001600020600083815260200190815260200160002081905550806007600084815260200190815260200160002081905550505050565b6000604051905090565b600080fd5b600080fd5b60007fffffffff0000000000000000000000000000000000000000000000000000000082169050919050565b6125ad81612578565b81146125b857600080fd5b50565b6000813590506125ca816125a4565b92915050565b6000602082840312156125e6576125e561256e565b5b60006125f4848285016125bb565b91505092915050565b60008115159050919050565b612612816125fd565b82525050565b600060208201905061262d6000830184612609565b92915050565b600081519050919050565b600082825260208201905092915050565b60005b8381101561266d578082015181840152602081019050612652565b8381111561267c576000848401525b50505050565b6000601f19601f8301169050919050565b600061269e82612633565b6126a8818561263e565b93506126b881856020860161264f565b6126c181612682565b840191505092915050565b600060208201905081810360008301526126e68184612693565b905092915050565b6000819050919050565b612701816126ee565b811461270c57600080fd5b50565b60008135905061271e816126f8565b92915050565b60006020828403121561273a5761273961256e565b5b60006127488482850161270f565b91505092915050565b600073ffffffffffffffffffffffffffffffffffffffff82169050919050565b600061277c82612751565b9050919050565b61278c81612771565b82525050565b60006020820190506127a76000830184612783565b92915050565b6127b681612771565b81146127c157600080fd5b50565b6000813590506127d3816127ad565b92915050565b600080604083850312156127f0576127ef61256e565b5b60006127fe858286016127c4565b925050602061280f8582860161270f565b9150509250929050565b612822816126ee565b82525050565b600060208201905061283d6000830184612819565b92915050565b60008060006060848603121561285c5761285b61256e565b5b600061286a868287016127c4565b935050602061287b868287016127c4565b925050604061288c8682870161270f565b9150509250925092565b6000602082840312156128ac576128ab61256e565b5b60006128ba848285016127c4565b91505092915050565b6128cc816125fd565b81146128d757600080fd5b50565b6000813590506128e9816128c3565b92915050565b600080604083850312156129065761290561256e565b5b6000612914858286016127c4565b9250506020612925858286016128da565b9150509250929050565b600080fd5b600080fd5b7f4e487b7100000000000000000000000000000000000000000000000000000000600052604160045260246000fd5b61297182612682565b810181811067ffffffffffffffff821117156129905761298f612939565b5b80604052505050565b60006129a3612564565b90506129af8282612968565b919050565b600067ffffffffffffffff8211156129cf576129ce612939565b5b6129d882612682565b9050602081019050919050565b82818337600083830152505050565b6000612a07612a02846129b4565b612999565b905082815260208101848484011115612a2357612a22612934565b5b612a2e8482856129e5565b509392505050565b600082601f830112612a4b57612a4a61292f565b5b8135612a5b8482602086016129f4565b91505092915050565b60008060008060808587031215612a7e57612a7d61256e565b5b6000612a8c878288016127c4565b9450506020612a9d878288016127c4565b9350506040612aae8782880161270f565b925050606085013567ffffffffffffffff811115612acf57612ace612573565b5b612adb87828801612a36565b91505092959194509250565b60008060408385031215612afe57612afd61256e565b5b6000612b0c858286016127c4565b9250506020612b1d858286016127c4565b9150509250929050565b7f4e487b7100000000000000000000000000000000000000000000000000000000600052602260045260246000fd5b60006002820490506001821680612b6e57607f821691505b60208210811415612b8257612b81612b27565b5b50919050565b7f4552433732313a20617070726f76616c20746f2063757272656e74206f776e6560008201527f7200000000000000000000000000000000000000000000000000000000000000602082015250565b6000612be460218361263e565b9150612bef82612b88565b604082019050919050565b60006020820190508181036000830152612c1381612bd7565b9050919050565b7f4552433732313a20617070726f76652063616c6c6572206973206e6f7420746f60008201527f6b656e206f776e6572206f7220617070726f76656420666f7220616c6c000000602082015250565b6000612c76603d8361263e565b9150612c8182612c1a565b604082019050919050565b60006020820190508181036000830152612ca581612c69565b9050919050565b7f4552433732313a2063616c6c6572206973206e6f7420746f6b656e206f776e6560008201527f72206f7220617070726f76656400000000000000000000000000000000000000602082015250565b6000612d08602d8361263e565b9150612d1382612cac565b604082019050919050565b60006020820190508181036000830152612d3781612cfb565b9050919050565b7f455243373231456e756d657261626c653a206f776e657220696e646578206f7560008201527f74206f6620626f756e6473000000000000000000000000000000000000000000602082015250565b6000612d9a602b8361263e565b9150612da582612d3e565b604082019050919050565b60006020820190508181036000830152612dc981612d8d565b9050919050565b7f42616c616e6365206973207a65726f0000000000000000000000000000000000600082015250565b6000612e06600f8361263e565b9150612e1182612dd0565b602082019050919050565b60006020820190508181036000830152612e3581612df9565b9050919050565b7f4e6f7420656e6f7567682065746865722073656e742e00000000000000000000600082015250565b6000612e7260168361263e565b9150612e7d82612e3c565b602082019050919050565b60006020820190508181036000830152612ea181612e65565b9050919050565b7f455243373231456e756d657261626c653a20676c6f62616c20696e646578206f60008201527f7574206f6620626f756e64730000000000000000000000000000000000000000602082015250565b6000612f04602c8361263e565b9150612f0f82612ea8565b604082019050919050565b60006020820190508181036000830152612f3381612ef7565b9050919050565b7f4e487b7100000000000000000000000000000000000000000000000000000000600052603260045260246000fd5b7f4552433732313a20696e76616c696420746f6b656e2049440000000000000000600082015250565b6000612f9f60188361263e565b9150612faa82612f69565b602082019050919050565b60006020820190508181036000830152612fce81612f92565b9050919050565b7f4552433732313a2061646472657373207a65726f206973206e6f74206120766160008201527f6c6964206f776e65720000000000000000000000000000000000000000000000602082015250565b600061303160298361263e565b915061303c82612fd5565b604082019050919050565b6000602082019050818103600083015261306081613024565b9050919050565b600081905092915050565b600061307d82612633565b6130878185613067565b935061309781856020860161264f565b80840191505092915050565b60006130af8285613072565b91506130bb8284613072565b91508190509392505050565b7f4f776e61626c653a206e6577206f776e657220697320746865207a65726f206160008201527f6464726573730000000000000000000000000000000000000000000000000000602082015250565b600061312360268361263e565b915061312e826130c7565b604082019050919050565b6000602082019050818103600083015261315281613116565b9050919050565b7f4552433732313a207472616e736665722066726f6d20696e636f72726563742060008201527f6f776e6572000000000000000000000000000000000000000000000000000000602082015250565b60006131b560258361263e565b91506131c082613159565b604082019050919050565b600060208201905081810360008301526131e4816131a8565b9050919050565b7f4552433732313a207472616e7366657220746f20746865207a65726f2061646460008201527f7265737300000000000000000000000000000000000000000000000000000000602082015250565b600061324760248361263e565b9150613252826131eb565b604082019050919050565b600060208201905081810360008301526132768161323a565b9050919050565b7f4f776e61626c653a2063616c6c6572206973206e6f7420746865206f776e6572600082015250565b60006132b360208361263e565b91506132be8261327d565b602082019050919050565b600060208201905081810360008301526132e2816132a6565b9050919050565b7f4552433732313a20617070726f766520746f2063616c6c657200000000000000600082015250565b600061331f60198361263e565b915061332a826132e9565b602082019050919050565b6000602082019050818103600083015261334e81613312565b9050919050565b7f4552433732313a207472616e7366657220746f206e6f6e20455243373231526560008201527f63656976657220696d706c656d656e7465720000000000000000000000000000602082015250565b60006133b160328361263e565b91506133bc82613355565b604082019050919050565b600060208201905081810360008301526133e0816133a4565b9050919050565b7f4e487b7100000000000000000000000000000000000000000000000000000000600052601260045260246000fd5b7f5061757361626c653a206e6f7420706175736564000000000000000000000000600082015250565b600061344c60148361263e565b915061345782613416565b602082019050919050565b6000602082019050818103600083015261347b8161343f565b9050919050565b7f5061757361626c653a2070617573656400000000000000000000000000000000600082015250565b60006134b860108361263e565b91506134c382613482565b602082019050919050565b600060208201905081810360008301526134e7816134ab565b9050919050565b600081519050919050565b600082825260208201905092915050565b6000613515826134ee565b61351f81856134f9565b935061352f81856020860161264f565b61353881612682565b840191505092915050565b60006080820190506135586000830187612783565b6135656020830186612783565b6135726040830185612819565b8181036060830152613584818461350a565b905095945050505050565b60008151905061359e816125a4565b92915050565b6000602082840312156135ba576135b961256e565b5b60006135c88482850161358f565b91505092915050565b7f455243373231456e756d657261626c653a20636f6e736563757469766520747260008201527f616e7366657273206e6f7420737570706f727465640000000000000000000000602082015250565b600061362d60358361263e565b9150613638826135d1565b604082019050919050565b6000602082019050818103600083015261365c81613620565b9050919050565b7f4552433732313a206d696e7420746f20746865207a65726f2061646472657373600082015250565b600061369960208361263e565b91506136a482613663565b602082019050919050565b600060208201905081810360008301526136c88161368c565b9050919050565b7f4552433732313a20746f6b656e20616c7265616479206d696e74656400000000600082015250565b6000613705601c8361263e565b9150613710826136cf565b602082019050919050565b60006020820190508181036000830152613734816136f8565b9050919050565b7f4e487b7100000000000000000000000000000000000000000000000000000000600052601160045260246000fd5b6000613775826126ee565b9150613780836126ee565b9250828210156137935761379261373b565b5b828203905092915050565b7f4e487b7100000000000000000000000000000000000000000000000000000000600052603160045260246000fdfea2646970667358221220399f610b0a47fe87175b215a99fc9e1f97e0a7086489deebf6e4363871f0e57164736f6c63430008090033",
  "linkReferences": {},
  "deployedLinkReferences": {}
}